:100000000C9415060C9459060C9459060C94590638
:100010000C9459060C9459060C9459060C945906E4
:100020000C9459060C9459060C94E50E0C94A90EE8
:100030000C940B1E0C9459060C9459060C945906FA
:100040000C9459060C9459060C9459060C945906B4
:100050000C9459060C94A41E0C9459060C94590641
:100060000C9459060C9459060C9459060C94590694
:100070000C9459060C9459060C9459060C94590684
:100080000C9459060C9459060C9459060C94590674
:100090000C9459060C9459060C9459060C94590664
:1000A0000C9459060C9459060C9459062B141A08F2
:1000B00015171C180C12132AC0041607090A0B0D79
:1000C0000E0F33C0E11D1B0619051110363738C15C
:1000D000E0C1E3280000002CE6E529D435C4C5C6FC
:1000E000C7C8C9CACBCCCD4CC031342D2E2F30510E
:1000F00052504FC00129D446010101AFB0ACABE56D
:1001000001E301010000000101010101C30101013E
:10011000010101242526270129CECFD0D1D2D32118
:100120002223A928C10101010101271E1F20AAC104
:1001300001010101000000010101010101010101B2
:100140000101013A3B3C3D01290101010101013E50
:100150003F404128E11E1F2021222342434445E520
:1001600001E1052C00000006010101C201010101AD
:10017000010101010101010101010101010101016F
:10018000010101010101010101010101010101015F
:10019000010101010000000101010101F1A1F1A231
:1001A000088A35021E021F022002210222022302B7
:1001B0002402250226022702310234022D022E02D9
:1001C0002F023002218A0A002530313662003A209F
:1001D0000025303258000A722F6320303132333418
:1001E00035363738394142434445460A000A00252E
:1001F00030325800626F756E6365213A20005B7380
:100200005D004B6579626F61726420737461727412
:100210002E0A0055534220636F6E666967757265DA
:10022000642E0A005B575D005B535D005B525D000E
:100230005B445D005B435D0005010906A101050704
:1002400019E029E71500250195087501810295013E
:1002500075088101050819012905950575019102A7
:100260009501750391010507190029FF150025FF68
:10027000950675088100C005010902A1010901A1C7
:10028000000509190129051500250195057501814C
:100290000295017503810105010930093115812598
:1002A0007F95027508810609381581257F950175AE
:1002B000088106050C0A38021581257F950175080D
:1002C0008106C0C005010980A10185021601002632
:1002D000B7001A01002AB700751095018100C0050A
:1002E0000C0901A1018503160100269C021A0100D8
:1002F0002A9C02751095018100C00631FF0974A186
:10030000010975150025FF952075088102097615EC
:100310000025FF952075089102C005010906A1017D
:10032000050719E029E715002501950875018102E7
:1003300005081901290595057501910295017503B7
:100340009101050719002977150025019578750198
:100350008102C01201100100000008AEFE448802B4
:10036000000102000109028D00050100A03209040C
:1003700000000103010100092111010001223F00D9
:100380000705810308000A090401000103010200B6
:10039000092111010001224D000705820308000A0E
:1003A00009040200010300000009211101000122DB
:1003B00036000705830308000A090403000203004E
:1003C00000000921110100012220000705840320FB
:1003D00000010705040320000109040400010300D3
:1003E00000000921110100012239000705850310D1
:1003F00000010403090418034500760061006E0043
:1004000020005300610069006C006500720000006C
:100410001403540068006500560061006E0020005F
:100420003400340000000A002530325820006B658B
:1004300079626F6172645F7265706F72743A2000E6
:100440004C45443A20253032580A0064656C5F6B95
:1004500065795F6269743A2063616E277420646510
:100460006C3A20253032580A006164645F6B65790C
:100470005F6269743A2063616E2774206164643A34
:1004800020253032580A00646F6E652E0A00626FB4
:100490006F746D61676963207363616E3A202E2EFD
:1004A0002E2000290A002575002F002575005D28E3
:1004B0000025640020002564002000256400200041
:1004C0002564007C0025303258006D6F7573656BB4
:1004D0006579205B62746E7C782079207620685D77
:1004E000287265702F61636C293A205B003F004ED3
:1004F0004B524F3A206F66660A004E4B524F3A20DD
:100500006F6E0A0074696D65725F72656164333283
:1005100028293A202530346C580A006B6579626FBF
:100520006172645F6E6B726F3A2025580A006B65CA
:1005300079626F6172645F69646C653A2025580A5C
:10054000006B6579626F6172645F70726F746F6364
:100550006F6C3A2025580A00686F73745F6B657979
:10056000626F6172645F6C65647328293A20255854
:100570000A000A092D20537461747573202D0A0036
:100580004743433A20342E332E33204156522D4CCC
:100590004942433A20312E362E37204156525F4190
:1005A0005243483A20617672350A004F5054494F01
:1005B0004E533A204C55464120424F4F544D4147EF
:1005C0004943204D4F5553454B45592045585452AA
:1005D000414B455920434F4E534F4C4520434F4DBF
:1005E0004D414E44204E4B524F20343039360A0094
:1005F0004255494C443A20756E6B6E6F776E2028D9
:1006000031383A32363A3438204D6179203331204E
:1006100032303136290A005649443A20307846456E
:100620004145284576616E205361696C65722920C9
:100630005049443A20307838383434285468655664
:10064000616E20343429205645523A2030783030BB
:1006500030320A00444553433A206B6579626F613A
:100660007264206669726D7761726520666F7220B0
:10067000545634340A000A092D2056657273696F86
:100680006E202D0A000A6D6F7573653A206F6666DD
:100690000A000A6D6F7573653A206F6E0A000A6B67
:1006A0006579626F6172643A206F66660A000A6B50
:1006B0006579626F6172643A206F6E0A000A6D613B
:1006C000747269783A206F66660A000A6D61747206
:1006D00069783A206F6E0A000A64656275673A208D
:1006E0006F6E0A000A64656275673A206F66660A73
:1006F000000A0A626F6F746C6F616465722E2E2E31
:100700002000433E20006565636F6E6669673A0AA4
:10071000000A002575002E6E6B726F3A20000A00E9
:100720002575002E737761705F6261636B736C6116
:1007300073685F6261636B73706163653A20000A7E
:10074000002575002E737761705F67726176655F53
:100750006573633A20000A002575002E6E6F5F678F
:1007600075693A20000A002575002E737761705F65
:1007700072616C745F726775693A20000A002575B2
:10078000002E737761705F6C616C745F6C67756964
:100790003A20000A002575002E636170736C6F6348
:1007A0006B5F746F5F636F6E74726F6C3A20000AD8
:1007B000002575002E737761705F636F6E74726FC2
:1007C0006C5F636170736C6F636B3A20000A002585
:1007D000303258006B65796D61705F636F6E66696A
:1007E000672E7261773A20000A002575002E6D6F22
:1007F0007573653A20000A002575002E6B657962D5
:100800006F6172643A20000A002575002E6D6174D4
:100810007269783A20000A002575002E656E6162C3
:100820006C653A20000A0025303258006465627514
:10083000675F636F6E6669672E7261773A20000AA0
:100840000025750064656661756C745F6C6179651F
:10085000723A20000A092D204D61676963202D0A34
:10086000643A0964656275670A783A096465627575
:1008700067206D61747269780A6B3A096465627504
:1008800067206B6579626F6172640A6D3A0964650D
:10089000627567206D6F7573650A763A09766572C1
:1008A00073696F6E0A733A097374617475730A63BE
:1008B0003A09636F6E736F6C65206D6F64650A3003
:1008C0002D343A096C61796572302D342846313007
:1008D0002D4634290A506175733A09626F6F746C42
:1008E0006F616465720A653A09656570726F6D0AB9
:1008F0006E3A094E4B524F0A000A092D20436F6E83
:10090000736F6C65202D0A4553432F713A09717539
:1009100069740A6D3A096D6F7573656B65790A00C4
:100920004C25640A00433E20003F004D3E200077E6
:10093000686572652064656C74613A2063757273D2
:100940006F723D25642C20776865656C3D25640ACF
:1009500053656520687474703A2F2F656E2E776921
:100960006B6970656469612E6F72672F77696B6957
:100970002F4D6F7573655F6B6579730A000A092DDA
:10098000204D6F7573656B6579202D0A4553432F94
:10099000713A09717569740A313A0964656C617953
:1009A000282A31306D73290A323A09696E746572EA
:1009B00076616C286D73290A333A096D61785F732B
:1009C000706565640A343A0974696D655F746F5FB8
:1009D0006D61780A353A09776865656C5F6D617895
:1009E0005F73706565640A363A09776865656C5FA0
:1009F00074696D655F746F5F6D61780A0A703A099A
:100A00007072696E742076616C7565730A643A0958
:100A10007365742064656661756C74730A75703AE9
:100A2000092B310A646F776E3A092D310A706775A8
:100A3000703A092B31300A7067646F776E3A092D6E
:100A400031300A0A7370656564203D2064656C74FA
:100A500061202A206D61785F7370656564202A20AB
:100A600028726570656174202F2074696D655F74EC
:100A70006F5F6D6178290A004D3E004D25643E2070
:100A8000003F007365742064656661756C740A00CC
:100A9000433E20000A00257500363A2077686565D8
:100AA0006C5F74696D655F746F5F6D61783A20008B
:100AB0000A00257500353A20776865656C5F6D61C1
:100AC000785F73706565643A20000A00257500340C
:100AD0003A2074696D655F746F5F6D61783A2000CC
:100AE0000A00257500333A206D61785F7370656583
:100AF000643A20000A00257500323A20696E746558
:100B00007276616C286D73293A20000A0025750001
:100B1000313A2064656C6179282A31306D73293A45
:100B200020000A092D2056616C756573202D0A007E
:100B30006D6B5F776865656C5F74696D655F746F19
:100B40005F6D6178203D2025640A006D6B5F7768DA
:100B500065656C5F6D61785F7370656564203D20CD
:100B600025640A006D6B5F74696D655F746F5F6DFE
:100B70006178203D2025640A006D6B5F6D61785FB0
:100B80007370656564203D2025640A006D6B5F69A4
:100B90006E74657276616C203D2025640A006D6B71
:100BA0005F64656C6179203D2025640A006D6B5F90
:100BB000776865656C5F74696D655F746F5F6D61A3
:100BC00078203D2025640A006D6B5F776865656C51
:100BD0005F6D61785F7370656564203D2025640AF0
:100BE000006D6B5F74696D655F746F5F6D61782018
:100BF0003D2025640A006D6B5F6D61785F737065E1
:100C00006564203D2025640A006D6B5F696E746524
:100C10007276616C203D2025640A006D6B5F64650F
:100C20006C6179203D2025640A0011241FBECFEF9E
:100C3000DAE0DEBFCDBF04B603FE24C08091BE0162
:100C40009091BF01A091C001B091C1018750904B1C
:100C5000A740B04BB9F41092BE011092BF011092A0
:100C6000C0011092C10114BE84B7877F84BF88E1A0
:100C70000FB6F89480936000109260000FBEE0E021
:100C8000F8E3099511E0A0E0B1E0E6E8FBE502C079
:100C900005900D92A631B107D9F711E0A6E1B1E0B8
:100CA00001C01D92AE3BB107E1F70E94C00A0C944F
:100CB000C12D0C940000FF93EF93E0911601F09189
:100CC0001701309709F00995EF91FF910895FC0104
:100CD0008591803011F0EFDFFBCF0895FF27E0E230
:100CE00030E247FF0CC0419597FF09C0EDE26095E7
:100CF000709580959095611D711D811D911D27FF37
:100D000002C0219530E350E2AA27660F771F881FA3
:100D1000991FAA1FA41710F0A41B63955A95A9F751
:100D2000AA3008F0A95FA05DAF93F3956115710536
:100D30008105910541F7ED3211F4EF93F395F21728
:100D400018F43F93F395FBCF8F91B5DFFA95E1F758
:100D50000895E991F9918591803021F0853219F05B
:100D6000AADFF9CF089520E0E89455915532C1F3F8
:100D7000503311F4689455915A3348F4505390F31A
:100D8000220F022E220F220F200D250FF4CF0EF47A
:100D9000219589919991533619F3533729F1533598
:100DA00059F1BC0188279927E8945C3621F4899190
:100DB000999168945591543639F446EF7EF077FF57
:100DC0000DC08FEF9FEF0AC055374AE039F0583514
:100DD00040E121F0523642E009F00895FF93EF938D
:100DE0007DDFEF91FF91B7CFFF93EF93FC018191EE
:100DF0008030B9F360DFFBCFFF93EF9368DFF1CF73
:100E0000DF93CF93CDB7DEB72596A3DFCF91DF91E8
:100E100008959CE0799FF0011124E60FF11D90E305
:100E2000899FC0011124E80FF91FE455FF4FE49199
:100E30008E2F0895E82FF0E0EE0FFF1FE45EFF4FC6
:100E400025913491C9010895E82FF0E0EE0FFF1FBE
:100E5000E85EFE4F80819181089525982D988AB192
:100E60008F768AB98BB18F768BB987988F980895D2
:100E700085B7806885BF85B7806885BF0E942D07CC
:100E800080B38C7880BB81B3836781BB8AB183795F
:100E90008AB98BB18C668BB984B1877A84B985B1F4
:100EA000886585B980E090E0FC01E85EFE4F118224
:100EB0001082FC01E05EFE4F1182108202968830A3
:100EC000910591F708952F923F924F925F926F9202
:100ED0007F928F929F92AF92BF92CF92DF92EF92CA
:100EE000FF920F931F93CF93DF9360E2E62E61E0B2
:100EF000F62E10E005E0113051F0113028F01230DC
:100F000049F0133061F409C0579A5F9808C0259AD8
:100F10002D9805C0879A8F9802C0549A5C9880EAF1
:100F20008A95F1F729B14B9904C052E0452E512C16
:100F300002C0442455244D9904C044E0642E712C11
:100F400002C0662477244E9904C038E0832E912C89
:100F500002C0882499241C9904C090E1A92EB12CC8
:100F600002C0AA24BB241E9904C080E2C82ED12C42
:100F700002C0CC24DD247E9903C0C0E4D0E002C0CE
:100F8000C0E0D0E07D9903C0A0E8B0E002C0A0E0DE
:100F9000B0E07C9903C0E0E0F1E002C0E0E0F0E006
:100FA000799903C060E072E002C060E070E0789977
:100FB00003C040E054E002C040E050E01B9903C091
:100FC00080E098E002C080E090E030E03695279520
:100FD0003695279522243324239422253325217006
:100FE00030702429352926293729282939292A2901
:100FF0003B292C293D292C2B3D2B2A2B3B2B2E2BFF
:101000003F2B262B372B242B352B282B392BD70185
:101010008D919C91119782179307A9F12D933C9381
:1010200080910001882369F180919F0180FF04C0B5
:1010300084EF91E00E94670680919F0180FF19C0B4
:1010400000D000D0EDB7FEB731962FEE222E21E072
:10105000322EADB7BEB712963C922E921197809168
:101060000001828313820E9400070F900F900F905F
:101070000F9080919F0180FF04C08DEE91E00E944F
:101080006706009300010E942D071F5F82E090E039
:10109000E80EF91E143009F02ECF8091000188234C
:1010A00051F1815080930001882329F080EA9FE06C
:1010B0000197F1F720C08091200190912101909338
:1010C000190180931801809122019091230190933E
:1010D0001B0180931A018091240190912501909326
:1010E0001D0180931C01809126019091270190930E
:1010F0001F0180931E0181E0DF91CF911F910F911D
:10110000FF90EF90DF90CF90BF90AF909F908F9027
:101110007F906F905F904F903F902F900895CF9267
:10112000DF92EF92FF920F931F93CF93DF9386EDA1
:1011300091E00E94670608E111E0C0E0D0E0E1ED37
:10114000CE2EE1E0DE2E78ECE72E71E0F72E00D017
:1011500000D0EDB7FEB7D282C182D483C3830E9490
:1011600000070F900F900F900F908EEC91E00E946F
:101170006706F801819191918F010E94BA1D00D0FC
:1011800000D0EDB7FEB7F282E182948383830E94A0
:1011900000070F900F900F900F9086EC91E00E9447
:1011A00067062196C430D10591F6DF91CF911F914A
:1011B0000F91FF90EF90DF90CF90089581FF02C0D4
:1011C000229A01C022982A980895229A64FF02C0A8
:1011D0002A9A08952A98089580912C018F5F809310
:1011E0002C0162E30E945D2D9923A9F510922C0138
:1011F00080912A01882379F18091B401843049F5E6
:101200009091E9008091EC0080FD02C080E001C077
:1012100080E89F70982B84E08093E9008091EB0038
:1012200080FF14C08091EE0087FD03C00FC01092B4
:10123000F1008091E80085FDFACF8091E80080FF01
:1012400005C08091E8008E778093E8009F709093AE
:10125000E90010922A010895809129010895682FCC
:101260008FB7F89410922A018FBF8091B401843017
:1012700011F08FEF08959091E9008091EC0080FDCE
:1012800002C080E001C080E8392F3F70382B84E035
:101290008093E9008091EB0080FF43C08091EE00D5
:1012A00087FF3FC080912B01882321F08091E800C7
:1012B00085FF37C010922B0125E040EA5FE012C0A5
:1012C0008091B401843069F58091EB0085FD29C0DF
:1012D000222321F481E080932B0123C02150CA01F5
:1012E0000197F1F78091E80085FFEACF6093F10064
:1012F0008091E80085FD0AC08091E80080FFFCCF66
:101300008091E8008E778093E80006C09FB7F8943C
:1013100081E080932A019FBF3F703093E90080E015
:1013200008953F703093E9008FEF08950895089570
:101330000895DF93CF9300D00F92CDB7DEB7AC0105
:101340008091B401843029F583E08093E9002FEF88
:1013500095ED05C0892F8A95F1F7222329F0809118
:10136000E800215085FFF6CF8091E80085FF11C08D
:101370005B834A8383E08983CE01019663E070E05A
:1013800040E050E00E944B0D8091E8008E77809302
:10139000E8000F900F900F90CF91DF910895DF93A9
:1013A000CF9300D00F92CDB7DEB7AC018091B401DE
:1013B000843029F583E08093E9002FEF95ED05C097
:1013C000892F8A95F1F7222329F08091E800215096
:1013D00085FFF6CF8091E80085FF11C05B834A83CB
:1013E00082E08983CE01019663E070E040E050E046
:1013F0000E944B0D8091E8008E778093E8000F905B
:101400000F900F90CF91DF910895AC018091B401BE
:10141000843001F582E08093E9002FEF95ED05C05F
:10142000892F8A95F1F7222329F08091E800215035
:1014300085FFF6CF8091E80085FF0CC0CA0165E00A
:1014400070E040E050E00E944B0D8091E8008E7704
:101450008093E80008950F931F93182F092F809110
:10146000B401843009F04DC0809101018823E9F076
:1014700080910C018823C9F085E08093E9009FEFFB
:1014800025E105C0822F8A95F1F7992329F08091F3
:10149000E800915085FFF6CF8091E80085FF31C0CC
:1014A000812F902F60E170E018C081E08093E90007
:1014B0009FEF25ED05C0822F8A95F1F7992329F03A
:1014C0008091E800915085FFF6CF8091E80085FF7C
:1014D00018C0812F902F68E070E040E050E00E943B
:1014E0004B0D8091E8008E778093E800ADE2B1E08B
:1014F000212F302FC901FC0180E101900D92815014
:10150000E1F71F910F9108950E94341E08950E94E3
:10151000E31D8091B201882331F00E94371E882399
:1015200011F00E94600C089584E292E00E94670628
:101530000E94840A089588E292E00E9467060E9451
:10154000980908958CE292E00E946706089580E36E
:1015500092E00E9467061092B301089584E392E03E
:101560000E9467068091B301882349F40E94290EE6
:101570000E948A0E8091E20084608093E2000895C8
:1015800084B7877F84BF88E10FB6F89480936000AA
:10159000109260000FBE80E090E020E80FB6F89453
:1015A00020936100809361000FBE0E9496090E9403
:1015B000C5110E94290E0E948A0E8091E20084606B
:1015C0008093E2008FE299E00E94931D78948091CD
:1015D000B4018430E1F783E192E00E9467060E9443
:1015E000A21282E091E00E94271182E092E00E9424
:1015F00067060E94970906C08EEF91E00E94670679
:101600000E94870A8091B4018530B1F30E94CB110A
:10161000F9CF8091B601833009F457C0843030F49B
:10162000813071F0823009F0B1C098C08A3009F47D
:1016300085C08B3009F46AC0893009F0A7C020C08A
:101640008091B501813A09F0A1C08091E800877FBF
:101650008093E8008091B9019091BA01892B21F41F
:101660008DE291E060E103C080E090E060E070E036
:101670000E94760C8091E8008B778093E8000895B3
:101680008091B501813209F081C08091B9019091BA
:10169000BA01009719F0049709F078C08091E8002A
:1016A000877F8093E80005C08091B401882309F406
:1016B0006DC08091E80082FFF7CF8091F1008093A8
:1016C00029018091E8008B771CC08091B501813A97
:1016D00009F05CC08091B9019091BA01892B09F0A1
:1016E00055C08091E800877F8093E8008091E800F2
:1016F00080FFFCCF809101018093F1008091E80090
:101700008E778093E8000E94D60D08958091B501F0
:101710008132E1F58091B9019091BA01892BB1F53F
:101720008091E800877F8093E8000E94D60D809129
:10173000B701809301010E94081308958091B501BB
:10174000813221F58091E800877F8093E8000E9434
:10175000D60D8091B8018093280108958091B5013C
:10176000813AA1F48091E800877F8093E80080911E
:10177000E80080FFFCCF809128018093F1008091E8
:10178000E8008E778093E8000E94D60D089581E0EE
:1017900061EC42E00E949E0D82E061EC42E00E941A
:1017A0009E0D83E061EC42E00E949E0D84E061ECBE
:1017B00042E20E949E0D85E061EC42E10E949E0D96
:1017C0000895DA019330C1F0943030F4913051F043
:1017D000923009F06DC00BC0913221F1923209F0C4
:1017E00067C03FC0E3E5F3E022E130E065C0E5E635
:1017F000F3E02DE830E060C0813051F0813020F01E
:10180000823009F055C008C0E2EFF3E0849107C0D0
:10181000E6EFF3E0849103C0E0E1F4E08491282F47
:1018200030E04AC06230A1F0633028F4662341F012
:101830006130F1F508C0633071F06430C9F50EC055
:10184000E7E7F3E002C0E0E9F3E029E030E034C08C
:10185000E9EAF3E0FACFE2ECF3E0F7CFE2EEF3E00F
:10186000F4CF6230B1F0633028F4662341F0613088
:10187000F9F40AC0633091F06430D1F414C0E8E3A5
:10188000F2E02FE330E018C0E7E7F2E02DE430E0CB
:1018900013C0E4ECF2E026E330E00EC0EAEFF2E041
:1018A00020E230E009C0EAE1F3E029E330E004C0DF
:1018B000E0E0F0E020E030E0ED93FC93C901089512
:1018C00080E189BD82E189BD09B400FEFDCF809130
:1018D000D8008F7D8093D8008091E0008260809353
:1018E000E0008091E00081FDFCCF08959C014091D3
:1018F000BB015091BC014617570718F4F90190E05D
:1019000043C06115710511F0AB01F8CF8091E8007B
:101910008E778093E80040E050E0F0CF8091B401F2
:10192000882309F447C0853009F446C08091E80057
:1019300083FD44C08091E80082FD36C08091E800BC
:1019400080FF22C08091F3009091F200782F60E038
:10195000292F30E0262B372B07C081918093F1008F
:10196000415050402F5F3F4F4115510519F028302D
:10197000310598F390E02830310509F491E0809129
:10198000E8008E778093E8004115510539F69923D8
:1019900029F60AC08091B401882361F0853061F096
:1019A0008091E80083FD0AC08091E80082FFF2CFB9
:1019B00080E0089582E0089583E0089581E008952D
:1019C0009C014091BB015091BC014617570718F488
:1019D000F90190E044C06115710511F0AB01F8CF39
:1019E0008091E8008E778093E80040E050E0F0CFEF
:1019F0008091B401882309F448C0853009F447C0B8
:101A00008091E80083FD45C08091E80082FD37C0E9
:101A10008091E80080FF23C08091F3009091F20054
:101A2000782F60E0292F30E0262B372B08C08491D7
:101A30008093F1003196415050402F5F3F4F411548
:101A4000510519F02830310590F390E02830310528
:101A500009F491E08091E8008E778093E8004115C9
:101A6000510531F6992321F60AC08091B4018823EB
:101A700061F0853061F08091E80083FD0AC08091BB
:101A8000E80082FFF2CF80E0089582E0089583E0CD
:101A9000089581E00895BF92CF92DF92EF92FF9276
:101AA0000F931F93CF93DF93182F092F7B016A01A8
:101AB0000E94F70DB82E8823B1F5812F902F9C013D
:101AC000E901C114D10439F0F60180819181E81A4D
:101AD000F90AC80FD91F00E010E022C08091E80089
:101AE00085FD16C08091E8008E778093E800C114D0
:101AF000D10449F0F60180819181800F911F91837B
:101B0000808385E011C00E94F70D882349F00CC046
:101B100089918093F1000894E108F1080F5F1F4F4D
:101B2000E114F104D9F68B2DDF91CF911F910F9124
:101B3000FF90EF90DF90CF90BF900895382F282F1F
:101B40002EC0822F8F708093E900231721F4762F07
:101B5000942F50E006C07091EC009091ED005091F0
:101B6000F00091FF1BC08091EB008E7F8093EB0013
:101B70008091ED008D7F8093ED008091EB0081607E
:101B80008093EB007093EC009093ED005093F00085
:101B90008091EE0087FD02C080E008952F5F27301E
:101BA00080F23F703093E90081E008958091B501A3
:101BB00088239CF404C08091B4018823B9F08091FB
:101BC000E80082FFF8CF8091E8008B778093E800EF
:101BD00008958091B401882349F08091E80080FF46
:101BE000F8CF8091E8008E778093E80008954091C7
:101BF000E4005091E50024E68091EC0080FF24C0D1
:101C00008091E80080FD1EC08091B401882311F40A
:101C100082E00895853011F483E008958091EB000F
:101C200085FF02C081E008958091E4009091E50075
:101C30008417950709F3222311F484E008952150B5
:101C4000AC01DACF80E008958091E80082FFDCCF1C
:101C5000F9CF0E949C0E0E94A40EE0EEF0E080817D
:101C600081608083A8EDB0E08C918F778C9319BC54
:101C7000E7EDF0E080818E7F80838C918F7E8C9366
:101C80001092B3010895EF92FF920F931F930E9459
:101C90009C0E0E94A40E08ED10E0F80180818F7761
:101CA000808380818068808380818F7D808319BC60
:101CB0001092B4011092B0011092B2011092B101D1
:101CC00080EEE82EF12CF70180818B7F8083F80174
:101CD00080818160808380E060E042E00E949E0D10
:101CE000E1EEF0E080818E7F8083E2EEF0E08081A3
:101CF00081608083808188608083F70180818E7F0E
:101D00008083F8018081806180831F910F91FF9013
:101D1000EF900895E8EDF0E080818F7E8083E7ED1D
:101D2000F0E080818160808384E082BF81E08093E5
:101D3000B3010E94430E0895E8EDF0E080818E7FAC
:101D400080831092E20008951092DA001092E10070
:101D500008951F920F920FB60F9211241F932F9385
:101D60003F934F935F936F937F938F939F93AF9323
:101D7000BF93EF93FF931091E9008091EC001092D4
:101D8000E9008091F000877F8093F00078940E94B2
:101D9000B70F1092E9008091F00088608093F00006
:101DA0001F701093E900FF91EF91BF91AF919F9148
:101DB0008F917F916F915F914F913F912F911F91E3
:101DC0000F900FBE0F901F9018951F920F920FB695
:101DD0000F9211242F933F934F935F936F937F93B1
:101DE0008F939F93AF93BF93EF93FF938091E10005
:101DF00082FF0BC08091E20082FF07C08091E1006A
:101E00008B7F8093E1000E94EC088091DA0080FFD4
:101E10001FC08091D80080FF1BC08091DA008E7FA8
:101E20008093DA008091D90080FF0DC080E189BDE8
:101E300082E189BD09B400FEFDCF81E08093B40149
:101E40000E94AE0A05C019BC1092B4010E94A70AF4
:101E50008091E10080FF19C08091E20080FF15C0F1
:101E60008091E2008E7F8093E2008091E2008061A9
:101E70008093E2008091D80080628093D80019BCE2
:101E800085E08093B4010E949B0A8091E10084FF69
:101E900030C08091E20084FF2CC080E189BD82E1E6
:101EA00089BD09B400FEFDCF8091D8008F7D80935D
:101EB000D8008091E1008F7E8093E1008091E20064
:101EC0008F7E8093E2008091E20081608093E20047
:101ED0008091B001882311F084E007C08091E30075
:101EE00087FD02C081E001C083E08093B4010E94BD
:101EF000940A8091E10083FF29C08091E20083FF72
:101F000025C08091E100877F8093E10082E080938B
:101F1000B4011092B0018091E1008E7F8093E100C6
:101F20008091E2008E7F8093E2008091E2008061E8
:101F30008093E20080E060E042E00E949E0D80918C
:101F4000F00088608093F0000E94A20AFF91EF9158
:101F5000BF91AF919F918F917F916F915F914F91C1
:101F60003F912F910F900FBE0F901F9018951F93C8
:101F7000DF93CF93CDB7DEB7AC970FB6F894DEBF43
:101F80000FBECDBFE5EBF1E08091F100819321E040
:101F9000ED3BF207C9F70E94090B8091E80083FF2F
:101FA0003EC18091B5013091B601353009F487C04A
:101FB000363040F43130C9F1313070F0333009F04F
:101FC0002EC133C0383009F4F9C0393009F409C1E1
:101FD000363009F024C197C0803821F0823809F0EA
:101FE0001EC108C09091B1018091B201882399F07F
:101FF000926011C08091B9018F708093E900809147
:10200000EB0090E025E0969587952A95E1F7982FCB
:1020100091701092E9008091E800877F8093E8003A
:102020009093F1001092F100D4C0882319F082300F
:1020300009F0F5C090E08F719070009721F0029741
:1020400009F0EDC00CC08091B701813009F0E7C004
:102050001092B201333069F58093B2012AC08091A9
:10206000B701882331F52091B9012F7009F4D7C049
:102070002093E9008091EB0080FF1BC0333021F4F6
:102080008091EB00806213C08091EB0080618093AF
:10209000EB0081E090E002C0880F991F2A95E2F7DB
:1020A0008093EA001092EA008091EB0088608093B0
:1020B000EB001092E9008091E800877F8DC08823B3
:1020C00009F0ADC01091B7011F778091E3008078CF
:1020D000812B8093E3008091E800877F8093E80064
:1020E0000E94D60D8091E80080FFFCCF8091E30034
:1020F00080688093E300112311F482E001C083E043
:102100008093B4018CC08058823008F088C08091E0
:10211000B7019091B80123E08C3D920709F034C0DB
:1021200083E08C838AE28B837FB7F894DE01159677
:102130006EE040E050E011E2E62FF0E0109357002F
:10214000849140FF03C082958F706F5F8F70282F3E
:1021500030E08A3018F0C901C79602C0C901C096A4
:102160008D939D934F5F5F4F4431510529F77FBF9A
:102170008091E800877F8093E800CE0103966AE2B1
:1021800070E00E94760C14C06091B901AE014F5FFF
:102190005F4F0E94E10BBC01009709F440C08091A1
:1021A000E800877F8093E80089819A810E94E00C93
:1021B0008091E8008B778093E80031C0803879F512
:1021C0008091E800877F8093E8008091B001809340
:1021D000F1008091E8008E778093E8000E94D60D90
:1021E0001EC08823E1F49091B7019230C0F4809131
:1021F000E800877F8093E8009093B0010E94D60D9D
:102200008091B001882331F48091E30087FD02C002
:1022100081E001C084E08093B4010E94C70B8091EB
:10222000E80083FF0AC08091E800877F8093E80080
:102230008091EB0080628093EB00AC960FB6F8942F
:10224000DEBF0FBECDBFCF91DF911F910895909358
:102250004201809341010895E0914101F0914201D2
:10226000309711F480E008950190F081E02D0995F8
:102270000895E0914101F0914201309721F00480EE
:10228000F581E02D099508959C0180913F01909181
:1022900040012817390779F03093400120933F011E
:1022A000E0914101F0914201309729F00680F781D9
:1022B000E02DC901099508959C0180913D019091FF
:1022C0003E012817390779F030933E0120933D01F4
:1022D000E0914101F0914201309729F00084F185AD
:1022E000E02DC90109950895EF92FF920F931F9376
:1022F000CF93DF93182F092FE0914101F091420114
:102300003097D9F10280F381E02D099580919F01EA
:1023100082FF33C080FF04C08EE294E00E94670613
:10232000812F902F9C01E90110E088E2E82E84E0E3
:10233000F82E80919F0180FF14C000D000D0EDB72F
:10234000FEB73196ADB7BEB71296FC92EE921197DA
:102350008881828313820E9400070F900F900F9054
:102360000F901F5F2196103121F780919F0180FF10
:1023700004C086E294E00E946706DF91CF911F912E
:102380000F91FF90EF90089508950E94C411089551
:102390000E94DE0808952F923F925F926F927F9283
:1023A0008F929F92AF92BF92CF92DF92EF92FF9265
:1023B0000F931F93DF93CF93CDB7DEB72A970FB656
:1023C000F894DEBF0FBECDBF0E94630724E4A22EA7
:1023D00021E0B22E8824992491E0292E312C582C0A
:1023E000882D0E9424076C01D501ED90FC90E82611
:1023F000F926E114F10409F443C080919F0181FFA3
:1024000002C00E948F0800E010E03101002E02C0DF
:10241000660C771C0A94E2F7C3018E219F21892B59
:1024200051F10E945E1E9C0109835A821B82C620C4
:10243000D720CD2811F081E08B83C9018160782FEE
:102440009D838C8349815A816B818D810E947F1687
:1024500049815A816B817C818D810E94CE1DF4015E
:10246000EE0FFF1FEC5BFE4F808191818625972543
:102470009183808321C00F5F1F4F0C30110529F617
:102480000894811C911CE2E0F0E0AE0EBF1EF4E067
:102490008F16910409F0A3CF0E945E1E2FEF2E83AA
:1024A0002F8318868160782F9A8789874FEF5FEF97
:1024B00060E08A850E947F160E94CD1D0E947D24C7
:1024C000109143010E942C11181721F10E942C1128
:1024D000282F8093430180919F0182FF17C080FFC6
:1024E00015C000D000D0EDB7FEB7319680E494E07F
:1024F000ADB7BEB712969C938E9311972283138229
:102500000E9400070F900F900F900F908091430151
:102510000E94E01D2A960FB6F894DEBF0FBECDBF15
:10252000CF91DF911F910F91FF90EF90DF90CF90AF
:10253000BF90AF909F908F907F906F905F903F90F3
:102540002F9008950E94551E0E9438070E947F20F8
:102550000895DF93CF9300D000D00F92CDB7DEB7B0
:102560000F900F900F900F900F90CF91DF910895E3
:10257000DF93CF9300D000D000D0CDB7DEB7269642
:102580000FB6F894DEBF0FBECDBFCF91DF91089597
:102590000E94371B482F892F82958F70282F30E09B
:1025A0002C3031054CF42A3031056CF42250304087
:1025B00022303105C0F407C02C30310551F02F30E6
:1025C000310589F406C0403E10F0403F61F481E0DF
:1025D00008959F70892F90E023E0969587952A951E
:1025E000E1F78170089580E008950E94AD1C0E947B
:1025F0007C1C0E946B1D0E94A1230E94AD2380E0E1
:1026000090E00E94441180E090E00E945C110895E7
:102610000E949D1C0E94F5120895882321F00E94BB
:10262000931C0E946B1D0895882321F00E948D1C2D
:102630000E946B1D0895282F882309F44EC082380C
:1026400059F40E942C1181FF48C089E30E94131D98
:102650000E946B1D89E30CC0833869F40E942C1121
:1026600080FF3BC083E50E94131D0E946B1D83E524
:102670000E94C51C1FC0843859F40E942C1182FF8F
:102680002CC087E40E94131D0E946B1D87E4F0CFCD
:102690008450813A10F4822FEBCF822F805E8830F5
:1026A00060F4277081E090E001C0880F2A95EAF776
:1026B0000E94931C0E946B1D0895822F855A8330BF
:1026C00028F480E090E00E9444110895285A2531B2
:1026D00020F480E090E00E945C1108951F93182F71
:1026E000882309F4D0C0823859F40E942C1181FD4E
:1026F000CAC089E30E94131D0E946B1D89E30CC0B0
:10270000833879F40E942C1180FDBDC083E50E94BE
:10271000131D0E946B1D83E50E94C51C0E946B1D4A
:10272000B2C0843859F40E942C1182FDACC087E4F9
:102730000E94131D0E946B1D87E4EECF8450813AE6
:1027400050F4812F0E946D2A882309F09CC0812FAC
:102750000E94131DE3CF812F805E883050F41770E4
:1027600081E090E001C0880F1A95EAF70E948D1C65
:10277000D5CF812F855A8330A0F4153A19F481E81A
:1027800090E00CC0163A19F482E890E007C0173ABE
:1027900019F080E090E002C083E890E00E944411CC
:1027A00072C0812F885A853108F06DC0183A19F42B
:1027B00082EE90E066C0193A19F489EE90E061C0AB
:1027C0001A3A19F48AEE90E05CC01B3A19F485EBD2
:1027D00090E057C01C3A19F486EB90E052C01D3AC5
:1027E00019F483EB90E04DC01E3A19F484EB90E0AD
:1027F00048C01F3A19F487EB90E043C0113B19F42D
:102800008CEC90E03EC0103B19F48DEC90E039C0A8
:10281000123B19F483E891E034C0133B19F48AE8C1
:1028200091E02FC0143B19F482E991E02AC0153BD6
:1028300019F484E991E025C0163B19F481E292E095
:1028400020C0173B19F483E292E01BC0183B19F437
:1028500084E292E016C0193B19F485E292E011C0BF
:102860001A3B19F486E292E00CC01B3B19F487E294
:1028700092E007C01C3B19F080E090E002C08AE2C1
:1028800092E00E945C111F910895AF92BF92CF9287
:10289000DF92EF92FF920F931F93DF93CF93CDB709
:1028A000DEB72A970FB6F894DEBF0FBECDBF5C012E
:1028B000DE011196FC0185E001900D928150E1F757
:1028C0000B81F501F580F2944FE0F422DE011696BB
:1028D000FE01319685E001900D928150E1F73E8135
:1028E0002F8189859A85892B09F4F8C12F3F09F03A
:1028F000C8C13F3F09F0C5C1F1C18D2D8F702223A2
:1029000011F4182F03C0182F1295107F002349F0DF
:10291000112309F490C1812F0E94A01C0E946B1DFD
:102920008AC18C2D0E941B13112309F4D7C1812F5A
:102930000E94A61C0E946B1DD1C18D2D8F7020326C
:1029400011F4182F03C0182F1295107FCC2021F0FE
:10295000F1E0CF1629F514C0002349F0FF2051F112
:1029600021E0F21639F5812F0E94B01CB7C1FF207B
:1029700021F081E0F81609F4B1C10E94B31C2FC107
:10298000002349F0E5E0EF1508F4A8C10E948A1C75
:10299000812381F024C1F4E0FF1508F49FC11FC119
:1029A000002361F0FF2031F0F501858180FF43C1F4
:1029B0008F708583812F0E94141390C1FF2009F42A
:1029C0000EC144C18D2D86958695837090E0009749
:1029D00021F0019709F082C10AC0002319F0C60155
:1029E000937002C080E090E00E94441177C1002300
:1029F00019F0C601937002C080E090E00E945C1163
:102A00006DC1002321F08C2D0E94AF2203C08C2DBC
:102A10000E9419230E94AD2361C18D2D837009F09E
:102A20005EC0002309F05AC12C2D229526952770EF
:102A3000220F220F8C2D8F70E82EFF2400E010E073
:102A4000022E04C0EE0CFF1C001F111F0A94D2F7C7
:102A5000C4FC05C060E070E080E090E00FC06FE073
:102A600070E080E090E004C0660F771F881F991F18
:102A70002A95D2F76095709580959095D694D694C6
:102A8000F3E0DF224D2D50E041305105A9F04230F6
:102A900051051CF4452B49F021C14230510589F004
:102AA0004330510509F01AC113C06E297F29802BCC
:102AB000912B0E94571C12C16E297F29802B912BCC
:102AC0000BC06E297F29802B912B0E94461C06C1CA
:102AD0000E94571CC801B7010E94681CFFC090E00B
:102AE000002311F496958795817009F4F7C02C2D79
:102AF000229526952770220F220F8C2D8F70E82E9D
:102B0000FF2400E010E0022E04C0EE0CFF1C001FAA
:102B1000111F0A94D2F7C4FC05C060E070E080E0A9
:102B200090E00FC06FE070E080E090E004C0660FBE
:102B3000771F881F991F2A95D2F760957095809509
:102B40009095D694D69423E0D2224D2D50E041307A
:102B50005105A9F0423051051CF4452B49F0BEC087
:102B60004230510589F04330510509F0B7C013C018
:102B70006E297F29802B912B0E94A81BAFC06E2944
:102B80007F29802B912B0BC06E297F29802B912BC5
:102B90000E94971BA3C00E94A81BC801B7010E94F6
:102BA000B91B9CC080EFC816F1F08C1520F0E0EE48
:102BB000CE16E8F109C0F2EFCF1651F1CF1618F199
:102BC00023EFC216A1F529C01C2D1F708D2D8F710A
:102BD000002319F00E94061CEDCE0E94E61B812FF7
:102BE0000E940D137BC0002329F084E08F1508F4A8
:102BF00075C004C0E5E0EF1508F470C08D2D8F712D
:102C00000E94CA1B6BC08D2D8F71002329F119C042
:102C10008D2D8F710023A9F01FC0002329F08D2D69
:102C20008F710E94221C5AC00E94321C57C0002380
:102C300059F0FF2021F08C2D0E946E134FC08D2D76
:102C40008F710E94061C4AC0FF2021F08C2D0E942B
:102C50001B1344C08D2D8F710E94E61B3FC0FFE007
:102C6000DF22C5016C2D4D2D0E94ED1E0E94A11A80
:102C700035C02FE0D222C5016C2D4D2D0E94F01ED3
:102C80002DC089819A810E94371B6C010E94361BDE
:102C90000E94351B8D2D82958F7090E085309105B7
:102CA00009F4AFCE8630910554F4843091050CF0D0
:102CB00089CE2D2D207F02970CF03FCE1ECE8C307A
:102CC00091053CF48A3091050CF06CCF089731F4F3
:102CD000A4CE8C30910519F20F9759F22A960FB6AF
:102CE000F894DEBF0FBECDBFCF91DF911F910F9142
:102CF000FF90EF90DF90CF90BF90AF900895DF925C
:102D0000EF92FF920F931F93DF93CF93CDB7DEB770
:102D10002B970FB6F894DEBF0FBECDBF4F835887F9
:102D200069877A878B87D62EE42EF52E0A851B8538
:102D300001151105B9F02FEF521749F480E090E02A
:102D4000AFEF4A1711F481E090E0882359F4D98657
:102D5000EF82F886702F1B870A87A7016D2D8B8560
:102D60000E94CE1DFE01319686E0DF011D928A95FC
:102D7000E9F7DB82E982FA82702F1D830C83A701B9
:102D80006D2D8D819E810E94E2192B960FB6F894CD
:102D9000DEBF0FBECDBFCF91DF911F910F91FF908E
:102DA000EF90DF9008950F931F930091530115C08A
:102DB00010E0F801EE0FFF1FE00FF11FEE0FFF1FF5
:102DC000EC5AFE4F408151816281738184819581EB
:102DD0000E94B8120F5F1F4F0770809152010817B1
:102DE00039F71F910F91089540914C0150914D0179
:102DF00060914E0170914F0180915001909151016D
:102E00000E94B81208950F931F93CF93DF93809180
:102E1000510182958F7009F06DC080914E01882319
:102E200009F468C0609153010091520140914F0133
:102E30005091500110914D0170914C01EA01C095E3
:102E4000D09555C04115510509F44FC01F3F49F4B5
:102E500080E090E07F3F11F481E090E0882309F06A
:102E600044C0262F30E0F901EE0FFF1FE20FF31FE1
:102E7000DF01AA0FBB1FAC5ABE4F11968C91119760
:102E8000181799F58C91781781F5EE0FFF1FEA5A04
:102E9000FE4F8081882349F513968D919C9114975C
:102EA0008417950718F0841B950B02C08C0F9D1F8B
:102EB000883C9105D0F4809151018F70806180939E
:102EC0005101F901EE0FFF1FE20FF31FEE0FFF1F7D
:102ED000E75AFE4F80818F70806180838CE491E09F
:102EE0000E9445140E94D31605C06F5F677060177B
:102EF00009F0A8CFDF91CF911F910F910895DF9234
:102F0000EF92FF920F931F93DF93CF93CDB7DEB76E
:102F10006B970FB6F894DEBF0FBECDBF8C01DC01FE
:102F20001296DC9012974C9111965C911197139622
:102F3000ED90FC90149720914F01309150016091D9
:102F40004D0170914C012115310509F4DBC16F3F32
:102F500009F003C27F3F09F000C2D4C1E216F306B4
:102F600040F0C701821B930B883C910508F0EEC02E
:102F700008C0209530952E0D3F1D283C310508F0E6
:102F8000E5C080915101807F09F095C06F3F09F045
:102F9000EAC17F3F09F0E7C115C0741799F4DD203D
:102FA00089F4809151018F708061809351010E945A
:102FB000F4168CE491E00E94451480915101F801CF
:102FC0008583BCC1FD82EC825A834983DB82DE01AA
:102FD0001696FE01319685E001900D928150E1F741
:102FE0006885DE011B96FE01369685E001900D9204
:102FF0008150E1F72C853B858E859F85892B09F4CF
:1030000051C02F3F09F0B3C13F3F09F0B0C14AC0E2
:10301000FD82EC825A834983DB82DE011B96FE012E
:10302000319685E001900D928150E1F7FC847B851B
:103030006D8580915301909152011FC0282F30E07F
:10304000F901EE0FFF1FE20FF31FDF01AA0FBB1FF5
:10305000AC5ABE4F11968C911197F81651F48C9181
:10306000781739F4EE0FFF1FEA5AFE4F8081681778
:10307000C9F42F5F3F4F822F87708917F9F68DC1F2
:103080009F7059F0442349F459C19F7031F0D80121
:1030900015968C91807F09F451C1405E483008F448
:1030A0004DC148C1DD2009F449C1809151018160C1
:1030B0008093510143C16F3F09F05DC17F3F09F02B
:1030C0005AC114C0741791F4DD2081F4809151012C
:1030D000F8018583C8010E944514ACE4B1E0F80111
:1030E00086E001900D928150E1F720C15A83498317
:1030F00089819A810E94C812882309F41BC1DD20AE
:1031000009F418C130915101832F82958F7090E09E
:1031100002979CF090914D0120914C01FE01709618
:1031200086E0DF011D928A95E9F7998B288BFC8A4E
:10313000EB8A3D8BCF010E944514ACE4B1E0F8016D
:1031400086E001900D928150E1F7EEC0809151012F
:10315000807FA9F47E2DFD82EC825A834983DB8235
:103160006D2D8D810E94A9120CE411E0C8010E940E
:10317000451486E0F80111928A95E9F7C0C06F3FC7
:1031800009F0FDC07F3F09F0FAC014C0741791F434
:10319000DD2081F480915101D80115968C93C801EE
:1031A0000E944514ECE4F1E086E0DF011D928A956F
:1031B000E9F7BEC05A83498389819A810E94C81267
:1031C000882309F4B7C0DD2009F4B4C0309151015F
:1031D000832F82958F7090E002979CF090914D0123
:1031E00020914C01FE01769686E0DF011D928A95C2
:1031F000E9F79F8B2E8BFA8EE98E3B8FCF010E94D1
:103200004514ACE4B1E0F80186E001900D928150E4
:10321000E1F78AC06F3F09F0B6C07F3F09F0B3C045
:1032200071C0E216F30640F0C701821B930B883C85
:10323000910508F053C008C0209530952E0D3F1D14
:10324000283C310508F04AC0DD2009F473C06F3F07
:1032500009F09FC07F3F09F09CC029C0741739F561
:103260009091510190FD1AC0892F82958F70B1F015
:10327000F80195838F3031F08F5F8295807F9F704A
:10328000982B9583C8010E944514ACE4B1E0F80185
:1032900086E001900D928150E1F748C0ACE4B1E0C6
:1032A000F80186E001900D928150E1F741C05A8308
:1032B000498389819A810E94C812882349F0ACE42D
:1032C000B1E0F80186E001900D928150E1F72CC049
:1032D000809151018160809351012CC07E2DFD822F
:1032E000EC825A834983DB826D2D8D810E94A91265
:1032F000ECE4F1E086E0DF011D928A95E9F70E9497
:10330000F4161CC0DD20B1F05A83498389819A816B
:103310000E94C812882371F0ACE4B1E0F80186E0A5
:1033200001900D928150E1F70E9403170E94F4165C
:1033300081E005C0C8010E944514FACF80E06B9679
:103340000FB6F894DEBF0FBECDBFCF91DF911F91B6
:103350000F91FF90EF90DF90089580914E018823A8
:1033600009F458CFFBCD651709F02CCE16CE61308D
:1033700009F498CE4DCE651709F0B8CEA3CE6517E7
:1033800009F018CF03CF80914E01882309F0BACFFE
:1033900048CF651709F08BCF61CF5A834983898164
:1033A0009A810E94371B482F892F82958F70282F72
:1033B00030E0223031050CF463CE243031050CF0BE
:1033C000B9CF63CE0F931F93DF93CF93CDB7DEB703
:1033D0002C970FB6F894DEBF0FBECDBF4F83588732
:1033E00069877A878B879C878E01095F1F4FC80189
:1033F0000E947F178823D9F028853F818A859B8585
:10340000892B09F46BC02F3F49F480E090E03F3FE7
:1034100011F481E090E0882309F060C04F81588565
:1034200069857A858B859C850E94B81257C0DE011C
:103430001196F80186E001900D928150E1F7F98133
:10344000EA814C815D814115510509F447C0EF3F88
:1034500009F04CC0FF3F09F049C040C0F983EA833E
:103460005D834C83F901EE0FFF1FE20FF31FEE0F98
:10347000FF1FEC5AFE4FDE01119686E00D9001927F
:103480008150E1F7609352010E94D31627C0919FAB
:10349000C00111248C5A9E4F0E947F17882309F483
:1034A00045C08091530190E0FC01EE0FFF1FE80F33
:1034B000F91FEE0FFF1FEC5AFE4F408151816281D0
:1034C0007381848195810E94B8128091530190E0AC
:1034D0000196877090708093530101C016E090911F
:1034E000530180915201981791F620C080915201AA
:1034F000282F30E02F5F3F4FB90167707070215067
:1035000030408091530190E06817790709F0A6CF09
:103510000E9408131092520110925301ECE4F1E062
:1035200086E0DF011D928A95E9F7D8CF2C960FB679
:10353000F894DEBF0FBECDBFCF91DF911F910F91E9
:103540000895CF92DF92EF92FF920F931F93CF9344
:10355000DF93EC01009709F47FC0EE24FF2480EA9A
:10356000C82E8FE0D82E01E010E0FE012196949144
:10357000953709F450C0963760F4943708F040C08E
:10358000943008F057C09130B1F0923009F064C027
:1035900023C0983709F44BC0993738F4963709F4AB
:1035A0003EC0973709F058C03EC0892F84588037F5
:1035B00008F052C043C0FE0121969491892F805E8D
:1035C000883008F037C09770802F01C0880F9A9517
:1035D000EAF70E94A01C0FC0FE0121969491892F4A
:1035E000805E883058F49770802F01C0880F9A95BC
:1035F000EAF70E94A61C0E946B1D24C0892F20C0E0
:10360000FE01249104C0C6010197F1F72150222345
:10361000D1F7219617C0FE012196E49013C00E94B5
:103620008A1CF82E0FC08F2D0E949A1CE4CF0E9496
:103630009D1CE1CF892F0E946E1304C0892F8F77C4
:103640000E941B132E2D04C0C6010197F1F72150D3
:10365000222309F48ACFF8CFDF91CF911F910F91E8
:10366000FF90EF90DF90CF90089508950895CF9246
:10367000DF92EF92FF920F931F93CF93DF936C0132
:10368000E0908401F09085010091860110918701FE
:103690008091880190918901A0918A01B0918B015C
:1036A000E82AF92A0A2B1B2BCFE1D0E0D801C70169
:1036B0000C2E04C0B695A795979587950A94D2F7D6
:1036C00081709070892B41F08C2FB6010E94A71F4A
:1036D0009C018130910551F421978FEFCF3FD8079E
:1036E00029F780E0B6010E94A71F9C01822FDF917D
:1036F000CF911F910F91FF90EF90DF90CF900895A1
:10370000609388017093890180938A0190938B0163
:103710000E94E508609188017091890180918A0179
:1037200090918B010E94DE1D0E94F51208959B016D
:10373000AC01609188017091890180918A0190911A
:103740008B0162277327842795270E94801B089589
:103750009B01AC01609188017091890180918A017F
:1037600090918B0162237323842395230E94801BF5
:1037700008959B01AC01609188017091890180914D
:103780008A0190918B01622B732B842B952B0E94C5
:10379000801B089521E030E040E050E004C0220F9B
:1037A000331F441F551F8A95D2F78091880190914D
:1037B0008901A0918A01B0918B01282739274A27D6
:1037C0005B27CA01B9010E94801B089521E030E007
:1037D00040E050E004C0220F331F441F551F8A955C
:1037E000D2F7209530954095509580918801909121
:1037F0008901A0918A01B0918B01282339234A23A2
:103800005B23CA01B9010E94801B089521E030E0CA
:1038100040E050E004C0220F331F441F551F8A951B
:10382000D2F78091880190918901A0918A01B0918D
:103830008B01282B392B4A2B5B2BCA01B9010E9423
:10384000801B089521E030E040E050E004C0220FEA
:10385000331F441F551F8A95D2F7CA01B9010E9430
:10386000801B089560E070E080E090E00E94801B83
:1038700008956093840170938501809386019093ED
:1038800087010E94DD1D0E94F51208959B01AC0185
:1038900060918401709185018091860190918701EA
:1038A00062277327842795270E94391C08959B015E
:1038B000AC016091840170918501809186019091A5
:1038C000870162237323842395230E94391C089562
:1038D0009B01AC016091840170918501809186010A
:1038E00090918701622B732B842B952B0E94391C9E
:1038F00008950E94391C089581E090E0E0910D0147
:10390000F0910E01E80FF91F1082019680319105A8
:10391000A9F7089580919C01089590919C01982B9E
:1039200090939C010895809590919C019823909389
:103930009C01089580939C01089510929C01089524
:1039400090919E01982B90939E010895809590915F
:103950009E01982390939E01089510929E010895D0
:1039600080939D01089510929D010895E0910D01AD
:10397000F0910E0120E091E0818181112F5F9F5F26
:1039800031969031C9F7822F0895482F8091010117
:103990008823B9F180910C01882399F1842F8695B1
:1039A000869586958F3098F4E0910D01F0910E0187
:1039B000E80FF11D477081E090E002C0880F991F69
:1039C0004A95E2F780952181822381830895809131
:1039D0009F0180FF27C000D000D0EDB7FEB7319621
:1039E0008BE494E0ADB7BEB712969C938E9311977B
:1039F000428313820E9400070F900F900F900F9048
:103A0000089520E030E0E0910D01F0910E01E20F09
:103A1000F31F8281841709F412822F5F3F4F2E30EB
:103A2000310589F70895382F809101018823B1F17C
:103A300080910C01882391F1832F86958695869538
:103A40008F3090F4E0910D01F0910E01E80FF11D1F
:103A5000377081E090E002C0880F991F3A95E2F735
:103A60002181282B2183089580919F0180FF32C0FE
:103A700000D000D0EDB7FEB7319689E694E0ADB73F
:103A8000BEB712969C938E931197328313820E9435
:103A900000070F900F900F900F900895A0910D01C7
:103AA000B0910E01FD0120E08FEF9281931791F00C
:103AB0008F3F19F4992309F4822F2F5F31962E300E
:103AC000A1F78F3F39F0992787FD9095A80FB91F6F
:103AD00012963C930895E0910D01F0910E018091B2
:103AE0009C018083E0910D01F0910E018081909105
:103AF0009E01892B808390919D01992369F0E0912B
:103B00000D01F0910E018081892B80830E94B61CEB
:103B1000882311F00E94B31C80910D0190910E0139
:103B20000E947411089590931701809316010895CF
:103B3000282F22952F708295807F282B30E0C90195
:103B40008C7C9070959587959595879523733070AB
:103B5000220F331F220F331F822B282F30E0C90181
:103B60008A7A90709595879525753070220F331F4E
:103B7000822B08950F931F93192F0E94981D082FD1
:103B8000812F0E94981D502F40E0282F30E0242BD9
:103B9000352BC9011F910F9108950895DF93CF939D
:103BA00000D000D00F92CDB7DEB70F900F900F90DE
:103BB0000F900F90CF91DF91089508950895089583
:103BC0000E94C81108958091B401843009F11092C7
:103BD000A00120E488E190E00FB6F894A8958093C6
:103BE00060000FBE2093600083B7817F846083BF35
:103BF00083B7816083BF7894889583B78E7F83BFB6
:103C000088E10FB6F89480936000109260000FBEB8
:103C10000895089508951F920F920FB60F921124E0
:103C20008F939F93AF93BF938091A001882399F4C2
:103C30008091A1019091A201A091A301B091A40152
:103C40004196A11DB11D8093A1019093A201A09363
:103C5000A301B093A401BF91AF919F918F910F9059
:103C60000FBE0F901F9018950E94081308950E9490
:103C7000091E0E9463070E940A1E80E00E9424071A
:103C8000892B81F481E00E942407892B59F482E07A
:103C90000E942407892B31F483E00E94240720E04E
:103CA000892B09F021E0822F089582E084BD93E002
:103CB00095BD9AEF97BD80936E0008958FB7F894E5
:103CC0002091A1013091A2014091A3015091A40142
:103CD0008FBFC90108958FB7F8942091A101309149
:103CE000A2014091A3015091A4018FBFB901CA0163
:103CF0000895EF92FF920F931F93BC018FB7F89432
:103D0000E090A101F090A2010091A3011091A40103
:103D10008FBFA801970140705070CB01A0E0B0E0C8
:103D2000281739074A075B0720F09701261B370B36
:103D300005C09B01209530952E0D3F1DC9011F9197
:103D40000F91FF90EF9008951F920F920FB60F9270
:103D500011248F939F93AF93BF938091A101909172
:103D6000A201A091A301B091A4010196A11DB11DD2
:103D70008093A1019093A201A093A301B093A40109
:103D8000BF91AF919F918F910F900FBE0F901F9099
:103D900018950E94290EF89480E29EE420E931E013
:103DA000F9013197F1F70197D9F787E090EBA7E098
:103DB000B0EB8093BE019093BF01A093C001B0937C
:103DC000C1012CE088E190E00FB6F894A8958093AB
:103DD00060000FBE20936000FFCF80E090E0089568
:103DE0000895CF93DF93282FC0E0D0E08D3B50F4AF
:103DF000883A28F5853AB0F4843080F4813009F0AF
:103E0000A0C08EC0883E30F4803E40F48F3B09F065
:103E100098C089C0803F08F494C07EC0822F90E093
:103E20009C0178C0853A19F421E830E473C0863AE1
:103E300019F023E830E46EC022E830E46BC0883A21
:103E400019F422EE34E466C0893A19F429EE34E418
:103E500061C08A3A19F42AEE34E45CC08B3A19F452
:103E600025EB34E457C08C3A19F426EB34E452C005
:103E70008D3A19F423EB34E44DC08E3A19F424EB57
:103E800034E448C08F3A19F427EB34E443C0813B53
:103E900019F42CEC34E43EC0803B19F42DEC34E4EE
:103EA00039C0823B19F423E835E434C0833B19F46C
:103EB0002AE835E42FC0843B19F422E935E42AC00E
:103EC000853B19F424E935E425C0863B19F421E249
:103ED00036E420C0873B19F423E236E41BC0883B5C
:103EE00019F424E236E416C0893B19F425E236E4DD
:103EF00011C08A3B19F426E236E40CC08B3B19F45E
:103F000027E236E407C08C3B19F020E034E402C01D
:103F10002AE236E4E90117C0C82FD0E0D06513C00B
:103F2000C1E0D0E010C00E94081384EF91E020E9C6
:103F300031E0F9013197F1F70197D9F70E94C91ED5
:103F400002C0C0E0D0E0CE01DF91CF9108950E9481
:103F50000907803EB0F4803C20F5813309F460C04D
:103F6000823338F4893209F453C08A3209F067C0C9
:103F70005CC08933C9F08238B9F0853309F05FC07D
:103F800042C0833E29F1843E30F4803EA1F0823E5F
:103F900009F055C018C0863E29F1873E09F04FC090
:103FA00026C00E941A0708959091BD0190FD09C096
:103FB00091FD07C041C08091BD0180FF02C089E32F
:103FC0003BC080EE39C08091BD0182FD07C004C0B6
:103FD0008091BD0182FF02C082EE2EC084FD0FC021
:103FE00083EE2AC08091BD0183FD07C004C080918B
:103FF000BD0183FF02C086EE1FC084FF02C080E0C7
:104000001BC087EE19C08091BD0185FF05C006C0A9
:104010008091BD0185FF02C085E30EC089E20CC01E
:104020008091BD0186FF05C006C08091BD0186FF5D
:1040300002C081E301C08AE20E94F11E08950E943D
:10404000F11E0895AF92BF92CF92DF92EF92FF924E
:104050001F93CF93DF937C0110E081E0A82EB12C59
:10406000812F0E9424076C01C0E0D0E0C5010C2E16
:1040700002C0880F991F0A94E2F78C219D21892B99
:10408000D9F080E06C2F712F0E94A71F9C018E1524
:104090009F05D9F0832F807F51F0803141F080322D
:1040A00031F0803321F0803A11F0803B29F4822FE7
:1040B00090E08E159F0549F02196CC30D105B1F6E0
:1040C0001F5F143069F680E001C081E0DF91CF917D
:1040D0001F91FF90EF90DF90CF90BF90AF90089529
:1040E000CF93DF93EC018CE290E00E9422208823A2
:1040F00019F0CE010E942220DF91CF9108951F93E5
:10410000CF93DF930E940E22882311F40E9419227C
:104110008EE894E00E94670614E6C0E4DCE905C07E
:104120000E946307CE010197F1F71150C8F787E8A5
:1041300094E00E94670689E290E00E947020882344
:1041400009F047C18AE290E00E947020882311F0B4
:104150000E94192285E090E00E947020882311F0CF
:104160000E94C91E0E94DF1D0E94092280939F01A8
:1041700087E090E00E9470208823D1F18BE190E0ED
:104180000E947020882349F090919F01892F869585
:1041900080958170880F9D7F28C08EE090E00E94FE
:1041A0007020882359F090919F01892F86958695DC
:1041B00080958170880F880F9B7F17C080E190E009
:1041C0000E94702090919F01882359F0892F869535
:1041D0008695869580958170880F880F880F977FC8
:1041E00004C0892F809581709E7F982B90939F01AA
:1041F00080919F010E94F9210E94FF218093BD01BF
:1042000080EE90E00E947020882349F08091BD01EB
:10421000982F909591708E7F892B8093BD0189E3B3
:1042200090E00E947020882359F09091BD01892F61
:10423000869580958170880F9D7F982B9093BD0106
:1042400082EE90E00E947020882369F09091BD0179
:10425000892F8695869580958170880F880F9B7F22
:10426000982B9093BD0186EE90E00E9470208823E9
:1042700079F09091BD01892F8695869586958095D8
:104280008170880F880F880F977F982B9093BD01BE
:1042900083EE90E00E947020882369F09091BD0128
:1042A000892F82958F70809581708295807F9F7E07
:1042B000982B9093BD0185E390E00E9470208823A5
:1042C00079F09091BD01892F8295869587708095B0
:1042D00081708295880F807E9F7D982B9093BD0181
:1042E00081E390E00E947020882389F09091BD01C5
:1042F000892F8295869586958370809581708295A9
:10430000880F880F807C9F7B982B9093BD0181E163
:1043100090E00E947020882379F08091BD01982F51
:10432000991F9927991F21E092279795992797958B
:104330008F77892B8093BD018091BD010E94ED2173
:104340008091BD01881F8827881F80930C0187E218
:1043500090E00E947020182F8EE190E00E94702063
:10436000811112608FE190E00E9470208111146031
:1043700080E290E00E9470208111186081E290E05C
:104380000E9470208111106182E290E00E947020F2
:104390008111106283E290E00E947020811110640C
:1043A00084E290E00E94702081111068112341F096
:1043B000812F0E94F321612F70E080E090E007C020
:1043C0000E94042290E0A0E0B0E0BC01CD010E9478
:1043D000791CDF91CF911F910895682F84E090E0C0
:1043E0000E949E2D0895682F83E090E00E949E2DEC
:1043F0000895682F82E090E00E949E2D089584E049
:1044000090E00E94902D089583E090E00E94902D0E
:10441000089582E090E00E94902D089580E090E061
:104420000E94982D20E08D5E9E4F09F421E0822F9E
:10443000089580E090E06DEE7EEF0E94AC2D82E06A
:1044400090E060E00E949E2D83E090E060E00E949A
:104450009E2D84E090E060E00E949E2D85E090E03B
:1044600060E00E949E2D08958091AB0180FF0BC0FB
:104470009091110185E0989FC00111249595879531
:104480009595879530C081FF09C09091110185E015
:10449000989FC00111249595879525C082FF03C080
:1044A000909111010DC08091AA01882319F485E033
:1044B00090E008956091120190911101861728F003
:1044C00085E0989FC00111240EC0899F900111249E
:1044D000C901880F991F880F991F820F931F70E0E1
:1044E0000E94692DCB018038910510F08FE7089567
:1044F000009709F481E008958091AB0180FF05C029
:10450000809113018695869518C081FF04C0809123
:104510001301869512C082FF03C0809113010DC064
:104520002091AA01222319F481E090E0089560917E
:10453000140180911301261710F090E007C0289F06
:10454000C001112470E00E94692DCB0180389105D3
:1045500010F08FE70895009709F481E00895803FF7
:1045600021F40E943422819504C0813F29F40E94E5
:1045700034228093A7010895823F21F40E943422BF
:10458000819504C0833F29F40E9434228093A601C0
:104590000895893F19F40E947C2205C08A3F31F4B6
:1045A0000E947C2281958093A80108958B3F21F47D
:1045B0000E947C22819504C08C3F29F40E947C22B9
:1045C0008093A9010895843F21F48091A501816021
:1045D00017C0853F21F48091A501826011C0863FFC
:1045E00021F48091A50184600BC0873F21F4809164
:1045F000A501886005C0883F31F48091A5018061E4
:104600008093A50108958D3F21F48091AB018160D5
:1046100005C08E3F31F48091AB0182608093AB0185
:1046200008958F3F29F48091AB0184608093AB01A2
:104630000895803F29F48091A70187FF6FC007C0CC
:10464000813F41F48091A70118160CF067C01092C9
:10465000A70164C0823F29F48091A60187FF5EC054
:1046600007C0833F41F48091A60118160CF056C094
:104670001092A60153C0893F29F48091A801181611
:104680003CF04CC08A3F39F48091A80187FF46C0B6
:104690001092A80143C08B3F29F48091A90187FFA4
:1046A0003DC006C08C3F39F48091A9011816B4F5BD
:1046B0001092A90133C0843F21F48091A5018E7F1F
:1046C00005C0853F31F48091A5018D7F8093A501C0
:1046D00025C0863F21F48091A5018B7FF7CF873FCE
:1046E00021F48091A501877FF1CF883F21F480914B
:1046F000A5018F7EEBCF8D3F21F48091AB018E7FA2
:104700000BC08E3F21F48091AB018D7F05C08F3FA0
:1047100029F48091AB018B7F8093AB018091A6013E
:10472000882371F48091A701882351F48091A80116
:10473000882331F48091A901882311F41092AA01F1
:104740000895E5EAF1E085E0DF011D928A95E9F739
:104750001092AA011092AB01089580919F0183FFEE
:10476000C1C08AEC94E00E94670600D000D0EDB78B
:10477000FEB7319685EC94E0ADB7BEB712969C9328
:104780008E9311978091A501828313820E94000766
:104790000F900F900F900F9083EC94E00E946706AB
:1047A00000D000D080EC94E0EDB7FEB79283818317
:1047B0008091A601992787FD9095948383830E9419
:1047C00000070F900F900F900F908EEB94E00E94D7
:1047D000670600D000D08BEB94E0ADB7BEB7129661
:1047E0009C938E9311978091A701992787FD9095AF
:1047F00014969C938E9313970E9400070F900F902E
:104800000F900F9089EB94E00E94670600D000D0D3
:1048100086EB94E0EDB7FEB7928381838091A80187
:10482000992787FD9095948383830E9400070F90BA
:104830000F900F900F9084EB94E00E94670600D0D9
:1048400000D081EB94E0ADB7BEB712969C938E93E7
:1048500011978091A901992787FD909514969C93B3
:104860008E9313970E9400070F900F900F900F9058
:104870008EEA94E00E94670600D000D0EDB7FEB744
:1048800031968BEA94E0ADB7BEB712969C938E93A7
:1048900011978091AA01828313820E9400070F90D2
:1048A0000F900F900F9089EA94E00E94670600D065
:1048B00000D0EDB7FEB7319686EA94E0ADB7BEB74B
:1048C00012969C938E9311978091AB0182831382F1
:1048D0000E9400070F900F900F900F9083EA94E0D2
:1048E0000E94670685EA91E00E9439110E945E1ECF
:1048F0009093AD018093AC0108951F938091AC011A
:104900009091AD010E94791EAC012091AA01222351
:1049100021F08091100190E006C090910F018AE093
:10492000989FC00111244817590708F485C0909139
:10493000A601992369F48091A701882349F4809105
:10494000A801882329F48091A901882309F474C05F
:104950002F3F19F02F5F2093AA01191624F40E940B
:1049600034228093A6018091A60187FF05C00E9492
:10497000342281958093A6018091A701181624F412
:104980000E9434228093A7018091A70187FF05C070
:104990000E94342281958093A7016091A60166232D
:1049A00039F11091A701112319F1772767FD70954F
:1049B000872F972F0E946E2C23E333E343E35FE3BB
:1049C0000E94D22C0E943B2C6093A601612F772776
:1049D00067FD7095872F972F0E946E2C23E333E39A
:1049E00043E35FE30E94D22C0E943B2C6093A7011B
:1049F0008091A801181624F40E947C228093A801BB
:104A00008091A80187FF05C00E947C228195809338
:104A1000A8018091A901181624F40E947C22809399
:104A2000A9018091A90187FF05C00E947C22819580
:104A30008093A9010E94AD231F91089580E00895FD
:104A400080E0089589EF98E00E94670608958DE759
:104A500099E00E94670600D000D000D0EDB7FEB705
:104A600031968FE299E0ADB7BEB712969C938E93C4
:104A7000119785E090E09383828381E090E09583B5
:104A800084830E9400078DB79EB706960FB6F894F0
:104A90009EBF0FBE8DBF0895833009F452C084308D
:104AA00030F4813071F0823009F0DAC02AC08530EC
:104AB00009F487C0853008F464C0863009F0D0C09E
:104AC000A8C020910F01822F90E0860F911D8F3F8B
:104AD000910520F4260F20930F0103C08FEF8093E0
:104AE0000F0100D000D0EDB7FEB731968EE99BE004
:104AF000ADB7BEB712969C938E93119780910F011C
:104B00007FC020911001822F90E0860F911D8F3F72
:104B1000910520F4260F2093100103C08FEF80939E
:104B2000100100D000D0EDB7FEB731968CE89BE0C5
:104B3000ADB7BEB712969C938E93119780911001DA
:104B40005FC020911101822F90E0860F911D8F3F51
:104B5000910520F4260F2093110103C08FEF80935D
:104B6000110100D000D0EDB7FEB7319689E79BE088
:104B7000ADB7BEB712969C938E9311978091110199
:104B80003FC020911201822F90E0860F911D8F3F30
:104B9000910520F4260F2093120103C08FEF80931C
:104BA000120100D000D0EDB7FEB7319684E69BE04D
:104BB000ADB7BEB712969C938E9311978091120158
:104BC0001FC020911301822F90E0860F911D8F3F0F
:104BD000910520F4260F2093130103C08FEF8093DB
:104BE000130100D000D0EDB7FEB731968BE49BE007
:104BF000ADB7BEB712969C938E9311978091130117
:104C0000828313820E9400070F900F900F900F90E5
:104C1000089520911401822F90E0860F911D8F3FFF
:104C2000910520F4260F2093140103C08FEF809389
:104C3000140100D000D0EDB7FEB7319680E39BE0C1
:104C4000ADB7BEB712969C938E93119780911401C5
:104C5000828313820E9400070F900F900F900F9095
:104C60000895833009F446C0843030F4813071F007
:104C7000823009F0B6C024C0853009F46FC0853099
:104C800008F452C0863009F0ACC08AC080910F0190
:104C9000681720F4861B80930F0102C010920F0149
:104CA00000D000D0EDB7FEB731968BE19CE0ADB7F8
:104CB000BEB712969C938E93119780910F0167C097
:104CC00080911001681720F4861B8093100102C0A8
:104CD0001092100100D000D0EDB7FEB7319689E0F8
:104CE0009CE0ADB7BEB712969C938E9311978091BE
:104CF00010014DC080911101681720F4861B80932C
:104D0000110102C01092110100D000D0EDB7FEB722
:104D1000319686EF9BE0ADB7BEB712969C938E930B
:104D200011978091110133C080911201681720F40E
:104D3000861B8093120102C01092120100D000D095
:104D4000EDB7FEB7319681EE9BE0ADB7BEB71296D8
:104D50009C938E9311978091120119C08091130139
:104D6000681720F4861B8093130102C01092130170
:104D700000D000D0EDB7FEB7319688EC9BE0ADB720
:104D8000BEB712969C938E931197809113018283E4
:104D900013820E9400070F900F900F900F900895BC
:104DA00080911401681720F4861B8093140102C0BF
:104DB0001092140100D000D0EDB7FEB731968DEA05
:104DC0009BE0ADB7BEB712969C938E9311978091DE
:104DD0001401828313820E9400070F900F900F909E
:104DE0000F9008951F93182F00D000D0EDB7FEB795
:104DF000319680E299E0ADB7BEB712969C938E9340
:104E00001197128313820E9400070F900F900F904A
:104E10000F9061E070E080E090E004C0660F771FC3
:104E2000881F991F1A95D2F70E94791C0E940813B7
:104E30001F9108951F938B3109F463C28C3120F5C3
:104E40008E3009F479C28F3078F4873009F44AC281
:104E5000883020F4863009F039C323C28830B1F19C
:104E60008B3009F033C317C2813109F417C3823183
:104E700020F4803109F02AC375C2863109F4A1C239
:104E8000893109F023C386C2853309F417C38633F9
:104E900068F4873209F412C3883220F48E3108F4A2
:104EA00015C30EC3893209F011C308C3833438F423
:104EB0008A3308F007C3883309F008C3ECC1833490
:104EC00009F4FCC2883409F001C3FAC186E097E016
:104ED0000E94670684E498E00E9467060E9404220C
:104EE00000D000D0EDB7FEB7319621E438E0ADB781
:104EF000BEB712963C932E931197828313820E9421
:104F000000070F900F900F900F908FE398E00E9492
:104F100067060E940922182F8CE298E00E9467061B
:104F200000D000D0EDB7FEB7319687E298E0ADB77C
:104F3000BEB712969C938E931197128313820E9490
:104F400000070F900F900F900F9085E298E00E945D
:104F500067068BE198E00E94670600D000D0EDB7AD
:104F6000FEB7319688E198E0ADB7BEB712969C9334
:104F70008E931197812F8170828313820E94000784
:104F80000F900F900F900F9086E198E00E946706B7
:104F90008CE098E00E94670600D000D0EDB7FEB725
:104FA000319689E098E0ADB7BEB712969C938E9388
:104FB0001197812F86958170828313820E9400074A
:104FC0000F900F900F900F9087E098E00E94670677
:104FD0008BEF97E00E94670600D000D0EDB7FEB7D8
:104FE000319688EF97E0ADB7BEB712969C938E933B
:104FF000119716951695812F8170828313820E94D6
:1050000000070F900F900F900F9086EF97E00E948F
:1050100067068DEE97E00E94670600D000D0EDB7DE
:10502000FEB731968AEE97E0ADB7BEB712969C9365
:105030008E93119716951170128313820E940007A8
:105040000F900F900F900F9088EE97E00E946706E8
:105050000E94FF21182F84ED97E00E94670600D080
:1050600000D0EDB7FEB731968FEC97E0ADB7BEB785
:1050700012969C938E931197128313820E940007BD
:105080000F900F900F900F908DEC97E00E946706A5
:1050900084EB97E00E94670600D000D0EDB7FEB722
:1050A000319681EB97E0ADB7BEB712969C938E9385
:1050B0001197812F8170828313820E9400070F90C5
:1050C0000F900F900F908FEA97E00E94670688E993
:1050D00097E00E94670600D000D0EDB7FEB731968A
:1050E00085E997E0ADB7BEB712969C938E93119762
:1050F000812F86958170828313820E9400070F9012
:105100000F900F900F9083E997E00E94670681E867
:1051100097E00E94670600D000D0EDB7FEB7319649
:105120008EE797E0ADB7BEB712969C938E9311971A
:10513000812F869586958170828313820E94000755
:105140000F900F900F900F908CE797E00E946706EA
:105150008AE697E00E94670600D000D0EDB7FEB760
:10516000319687E697E0ADB7BEB712969C938E93C3
:105170001197812F869586958695817082831382FB
:105180000E9400070F900F900F900F9085E697E018
:105190000E9467068BE597E00E94670600D000D06A
:1051A000EDB7FEB7319688E597E0ADB7BEB712967A
:1051B0009C938E931197812F8295817082831382A5
:1051C0000E9400070F900F900F900F9086E597E0D8
:1051D0000E94670684E497E00E94670600D000D032
:1051E000EDB7FEB7319681E497E0ADB7BEB7129642
:1051F0009C938E931197812F8295869581708283DF
:1052000013820E9400070F900F900F900F908FE372
:1052100097E00E94670683E297E00E94670600D04D
:1052200000D0EDB7FEB7319680E297E0ADB7BEB7DC
:1052300012969C938E93119712951695169513704E
:10524000812F8170828313820E9400070F900F903C
:105250000F900F908EE197E00E94670686E197E03D
:105260000E94670600D000D0EDB7FEB7319683E10B
:1052700097E0ADB7BEB712969C938E931197169593
:10528000128313820E9400070F900F900F900F90CF
:1052900081E197E002C084E598E00E94670681E022
:1052A0001AC180919F01807F80939F010E942225D7
:1052B00082E097E00E94670681E08093AE010BC117
:1052C0000E94081381EF96E00E94670680E197E252
:1052D00020E931E0F9013197F1F70197D9F70E9400
:1052E000C91EDDCF80919F0180FF08C084EE96E04B
:1052F0000E94670680919F01807F18C088ED96E02C
:1053000010C080919F01982F969590959170292FAC
:10531000220F8D7F822B80939F01992351F08BEC7C
:1053200096E00E94670680919F01816080939F01B3
:10533000B6CF8DEB96E0B1CF80919F01982F9695D7
:10534000969590959170292F220F220F8B7F822B9B
:1053500080939F01992319F08EEA96E0E2CF8EE9BF
:1053600096E09BCF80919F01982F96959695969564
:1053700090959170292F220F220F220F877F822B69
:1053800080939F01992319F082E996E0CACF85E8BE
:1053900096E083CF86E796E00E94670684E596E074
:1053A0000E94670687E196E00E94670680EF95E01D
:1053B0000E9467068BEA95E00E94670680E895E008
:1053C0006CCF82E795E00E9467060E942C1100D006
:1053D00000D0EDB7FEB7319628E535E0ADB7BEB7E2
:1053E00012963C932E931197828313820E9400079A
:1053F000EDB7FEB7319681E495E0ADB7BEB7129632
:105400009C938E93119780910101828313820E9455
:105410000007EDB7FEB731968EE295E0ADB7BEB7A7
:1054200012969C938E931197809128018283138208
:105430000E940007EDB7FEB731968BE195E0ADB75E
:10544000BEB712969C938E93119780910C01828324
:1054500013820E9400070F900F900F900F900E94F0
:105460006B1E00D000D000D024E035E0EDB7FEB7D1
:1054700032832183ADB7BEB713966D937D938D9321
:105480009C9316970E94000781E0EDB7FEB7369611
:105490000FB6F894FEBF0FBEEDBF1DC00E940813EB
:1054A00080910C0191E0892780930C01882319F0E9
:1054B0008AEF94E0F2CE8FEE94E0EFCE80E003C06E
:1054C0008D5101C089530E94F226E9CE8DEE94E001
:1054D0000E94670680E01F9108951F93182F809106
:1054E000AE01813079F0813020F0823009F0BEC108
:1054F00048C0E0910D01F0910E018081823209F0E7
:10550000B7C107C0E0910D01F0910E018081823298
:1055100049F4812F0E941E25882349F5812F0E947E
:105520001A27A7C1812F0E942025882301F5143155
:1055300091F0153128F41B3039F01031D9F40EC038
:10554000193249F01833B1F40E94222585E299E01E
:105550000E9467060CC01092AE0110C00E94272561
:105560008BE299E00E94670682E08093AE0181E0C1
:1055700090E07FC189E299E00E94670680E090E0B8
:1055800078C1143288F41E3108F0F2C01B3009F1E2
:105590001C3020F4173009F045C12DC1133159F1E9
:1055A000143109F03FC118C01B3409F418C11C3470
:1055B00030F4193289F0183309F034C10AC01135BA
:1055C00009F409C1123509F402C11E3409F02AC1D7
:1055D0000CC10E94272529C18091AF01882319F0B1
:1055E0001092AF0122C180E99AE00E94670681E033
:1055F0008093AE013EC182E29BE00E94670680E19B
:105600009BE00E94670600D000D0EDB7FEB7319650
:105610008DE09BE0ADB7BEB712969C938E93119729
:1056200080910F01828313820E9400070F900F90D8
:105630000F900F908BE09BE00E94670689EF9AE045
:105640000E94670600D000D0EDB7FEB7319686EF16
:105650009AE0ADB7BEB712969C938E931197809146
:105660001001828313820E9400070F900F900F9009
:105670000F9084EF9AE00E94670685EE9AE00E9400
:10568000670600D000D0EDB7FEB7319682EE9AE003
:10569000ADB7BEB712969C938E931197809111016E
:1056A000828313820E9400070F900F900F900F903B
:1056B00080EE9AE00E9467068FEC9AE00E946706EF
:1056C00000D000D0EDB7FEB731968CEC9AE0ADB7C4
:1056D000BEB712969C938E9311978091120182838C
:1056E00013820E9400070F900F900F900F908AEC8A
:1056F0009AE00E94670685EB9AE00E94670600D058
:1057000000D0EDB7FEB7319682EB9AE0ADB7BEB7E9
:1057100012969C938E93119780911301828313822A
:105720000E9400070F900F900F900F9080EB9AE06F
:105730000E94670689E99AE00E94670600D000D0BF
:10574000EDB7FEB7319686E99AE0ADB7BEB71296CF
:105750009C938E93119780911401828313820E94EF
:1057600000070F900F900F900F9084E99AE057C0B8
:105770001232F9F0133260F41F3199F0103218F43C
:105780001E3109F510C0103281F01132E1F40FC062
:10579000143299F0143278F0153289F0163299F4F7
:1057A00010C082E011C081E00FC083E00DC084E032
:1057B0000BC085E009C086E007C087E005C088E02F
:1057C00003C089E001C080E08093AF012EC08091CA
:1057D000AF0161E007C08091AF0161E009C0809135
:1057E000AF016AE00E944C2520C08091AF016AE0C1
:1057F0000E9431261AC08EE180930F0182E38093CC
:1058000010018AE08093110184E18093120188E005
:105810008093130188E28093140183E89AE00E9448
:10582000670603C081E89AE01DC02091AF012223E2
:10583000B9F000D000D0EDB7FEB731968BE79AE013
:10584000ADB7BEB712969C938E93119722831382A5
:105850000E94000781E00F900F900F900F9009C0F9
:1058600088E79AE00E94670681E003C01092AE01CB
:1058700080E01F91089504D06894B1118DC00895FF
:1058800070D088F09F5790F0B92F9927B751A0F0AA
:10589000D1F0660F771F881F991F1AF0BA95C9F7C4
:1058A00012C0B13081F077D0B1E0089574C0672F95
:1058B000782F8827B85F39F0B93FCCF38695779574
:1058C0006795B395D9F73EF490958095709561955D
:1058D0007F4F8F4F9F4F0895E89409C097FB3EF488
:1058E00090958095709561957F4F8F4F9F4F99232D
:1058F000A9F0F92F96E9BB279395F69587957795AB
:105900006795B795F111F8CFFAF4BB0F11F460FF6A
:105910001BC06F5F7F4F8F4F9F4F16C0882311F0C2
:1059200096E911C0772321F09EE8872F762F05C0D6
:10593000662371F096E8862F70E060E02AF09A9571
:10594000660F771F881FDAF7880F9695879597F966
:10595000089557FD9058440F551F59F05F3F71F05F
:105960004795880F97FB991F61F09F3F79F08795C6
:105970000895121613061406551FF2CF4695F1DF4F
:1059800008C0161617061806991FF1CF86957105DF
:10599000610508940895E894BB2766277727CB0113
:1059A00097F908950BD078C069D028F06ED018F020
:1059B000952309F05AC05FC01124EECFCADFA0F3CF
:1059C000959FD1F3950F50E0551F629FF001729F94
:1059D000BB27F00DB11D639FAA27F00DB11DAA1FB3
:1059E000649F6627B00DA11D661F829F2227B00D00
:1059F000A11D621F739FB00DA11D621F839FA00D8B
:105A0000611D221F749F3327A00D611D231F849FDA
:105A1000600D211D822F762F6A2F11249F57504031
:105A20008AF0E1F088234AF0EE0FFF1FBB1F661FCC
:105A3000771F881F91505040A9F79E3F510570F085
:105A400014C0AACF5F3FECF3983EDCF386957795C0
:105A50006795B795F795E7959F5FC1F7FE2B880F80
:105A6000911D9695879597F9089597F99F6780E816
:105A700070E060E008959FEF80EC089500240A94A0
:105A80001616170618060906089500240A94121619
:105A90001306140605060895092E0394000C11F44C
:105AA000882352F0BB0F40F4BF2B11F460FF04C0F9
:105AB0006F5F7F4F8F4F9F4F0895991B79E004C010
:105AC000991F961708F0961B881F7A95C9F780953D
:105AD000089597FB092E07260AD077FD04D00CD035
